{
  "contractName": "PropertyContract",
  "abi": [
    {
      "inputs": [],
      "payable": false,
      "stateMutability": "nonpayable",
      "type": "constructor"
    },
    {
      "anonymous": false,
      "inputs": [
        {
          "indexed": false,
          "name": "_level",
          "type": "uint256"
        },
        {
          "indexed": false,
          "name": "_msg",
          "type": "string"
        }
      ],
      "name": "Debug",
      "type": "event"
    },
    {
      "anonymous": false,
      "inputs": [
        {
          "indexed": false,
          "name": "_who",
          "type": "address"
        },
        {
          "indexed": false,
          "name": "_points",
          "type": "uint256"
        }
      ],
      "name": "Bid",
      "type": "event"
    },
    {
      "anonymous": false,
      "inputs": [
        {
          "indexed": false,
          "name": "_from",
          "type": "address"
        },
        {
          "indexed": false,
          "name": "_to",
          "type": "address"
        },
        {
          "indexed": false,
          "name": "_points",
          "type": "uint256"
        }
      ],
      "name": "OwnershipTransfer",
      "type": "event"
    },
    {
      "anonymous": false,
      "inputs": [
        {
          "indexed": false,
          "name": "_code",
          "type": "uint256"
        },
        {
          "indexed": false,
          "name": "_who",
          "type": "address"
        },
        {
          "indexed": false,
          "name": "_amount",
          "type": "uint256"
        },
        {
          "indexed": false,
          "name": "_points",
          "type": "uint256"
        }
      ],
      "name": "Financials",
      "type": "event"
    },
    {
      "anonymous": false,
      "inputs": [
        {
          "indexed": false,
          "name": "_newManager",
          "type": "address"
        },
        {
          "indexed": false,
          "name": "_dateFrom",
          "type": "string"
        }
      ],
      "name": "ManagerChange",
      "type": "event"
    },
    {
      "anonymous": false,
      "inputs": [
        {
          "indexed": false,
          "name": "_who",
          "type": "address"
        },
        {
          "indexed": false,
          "name": "_dateFrom",
          "type": "string"
        }
      ],
      "name": "LeaseRecord",
      "type": "event"
    },
    {
      "anonymous": false,
      "inputs": [
        {
          "indexed": false,
          "name": "_description",
          "type": "string"
        },
        {
          "indexed": false,
          "name": "_deadline",
          "type": "string"
        }
      ],
      "name": "VoteRequest",
      "type": "event"
    },
    {
      "anonymous": false,
      "inputs": [
        {
          "indexed": false,
          "name": "_description",
          "type": "string"
        },
        {
          "indexed": false,
          "name": "_result",
          "type": "string"
        },
        {
          "indexed": false,
          "name": "_ref",
          "type": "address"
        }
      ],
      "name": "VoteDecision",
      "type": "event"
    },
    {
      "constant": false,
      "inputs": [
        {
          "name": "_id",
          "type": "string"
        },
        {
          "name": "_name",
          "type": "string"
        },
        {
          "name": "_propertyAddress",
          "type": "string"
        },
        {
          "name": "_titleAgent",
          "type": "string"
        },
        {
          "name": "_titleContact",
          "type": "string"
        }
      ],
      "name": "initialize",
      "outputs": [
        {
          "name": "",
          "type": "bool"
        }
      ],
      "payable": false,
      "stateMutability": "nonpayable",
      "type": "function"
    },
    {
      "constant": true,
      "inputs": [],
      "name": "getPropertyDetails",
      "outputs": [
        {
          "name": "",
          "type": "string"
        },
        {
          "name": "",
          "type": "string"
        },
        {
          "name": "",
          "type": "string"
        },
        {
          "name": "",
          "type": "string"
        },
        {
          "name": "",
          "type": "string"
        }
      ],
      "payable": false,
      "stateMutability": "view",
      "type": "function"
    },
    {
      "constant": true,
      "inputs": [],
      "name": "getPropertyStatus",
      "outputs": [
        {
          "name": "",
          "type": "string"
        }
      ],
      "payable": false,
      "stateMutability": "view",
      "type": "function"
    },
    {
      "constant": true,
      "inputs": [],
      "name": "checkOwnershipShare",
      "outputs": [
        {
          "name": "",
          "type": "uint256"
        }
      ],
      "payable": false,
      "stateMutability": "view",
      "type": "function"
    },
    {
      "constant": true,
      "inputs": [],
      "name": "getCountOfInvestors",
      "outputs": [
        {
          "name": "_len",
          "type": "uint256"
        }
      ],
      "payable": false,
      "stateMutability": "view",
      "type": "function"
    },
    {
      "constant": true,
      "inputs": [
        {
          "name": "_who",
          "type": "address"
        }
      ],
      "name": "getInvestorDetails",
      "outputs": [
        {
          "name": "",
          "type": "uint256"
        },
        {
          "name": "",
          "type": "string"
        },
        {
          "name": "",
          "type": "uint256"
        },
        {
          "name": "",
          "type": "uint256"
        },
        {
          "name": "",
          "type": "uint256"
        }
      ],
      "payable": false,
      "stateMutability": "view",
      "type": "function"
    },
    {
      "constant": true,
      "inputs": [],
      "name": "checkAvailableFunds",
      "outputs": [
        {
          "name": "_funds",
          "type": "uint256"
        }
      ],
      "payable": false,
      "stateMutability": "view",
      "type": "function"
    },
    {
      "constant": false,
      "inputs": [
        {
          "name": "_openPrice",
          "type": "uint256"
        },
        {
          "name": "_closingCosts",
          "type": "uint256"
        },
        {
          "name": "_initialReserve",
          "type": "uint256"
        },
        {
          "name": "_monthlyFee",
          "type": "uint256"
        },
        {
          "name": "_monthlyLease",
          "type": "uint256"
        }
      ],
      "name": "openForBidding",
      "outputs": [],
      "payable": false,
      "stateMutability": "nonpayable",
      "type": "function"
    },
    {
      "constant": false,
      "inputs": [
        {
          "name": "_myContact",
          "type": "string"
        },
        {
          "name": "_myAmount",
          "type": "uint256"
        }
      ],
      "name": "submitBid",
      "outputs": [],
      "payable": false,
      "stateMutability": "nonpayable",
      "type": "function"
    },
    {
      "constant": false,
      "inputs": [
        {
          "name": "_seller",
          "type": "address"
        },
        {
          "name": "_actualPrice",
          "type": "uint256"
        },
        {
          "name": "_actualClosingCost",
          "type": "uint256"
        }
      ],
      "name": "closePurchase",
      "outputs": [
        {
          "name": "",
          "type": "bool"
        }
      ],
      "payable": false,
      "stateMutability": "nonpayable",
      "type": "function"
    },
    {
      "constant": false,
      "inputs": [],
      "name": "withdrawBySeller",
      "outputs": [
        {
          "name": "",
          "type": "bool"
        }
      ],
      "payable": false,
      "stateMutability": "nonpayable",
      "type": "function"
    },
    {
      "constant": false,
      "inputs": [],
      "name": "withdrawClosingFees",
      "outputs": [
        {
          "name": "",
          "type": "bool"
        }
      ],
      "payable": false,
      "stateMutability": "nonpayable",
      "type": "function"
    },
    {
      "constant": false,
      "inputs": [],
      "name": "cancelPurchase",
      "outputs": [
        {
          "name": "",
          "type": "bool"
        }
      ],
      "payable": false,
      "stateMutability": "nonpayable",
      "type": "function"
    },
    {
      "constant": false,
      "inputs": [],
      "name": "withdrawFunds",
      "outputs": [
        {
          "name": "_amount",
          "type": "uint256"
        }
      ],
      "payable": false,
      "stateMutability": "nonpayable",
      "type": "function"
    },
    {
      "constant": false,
      "inputs": [
        {
          "name": "_askingPrice",
          "type": "uint256"
        }
      ],
      "name": "beginSale",
      "outputs": [],
      "payable": false,
      "stateMutability": "nonpayable",
      "type": "function"
    },
    {
      "constant": false,
      "inputs": [
        {
          "name": "_buyer",
          "type": "address"
        },
        {
          "name": "_agreedPrice",
          "type": "uint256"
        },
        {
          "name": "_closingCosts",
          "type": "uint256"
        }
      ],
      "name": "closeSale",
      "outputs": [
        {
          "name": "",
          "type": "bool"
        }
      ],
      "payable": false,
      "stateMutability": "nonpayable",
      "type": "function"
    },
    {
      "constant": false,
      "inputs": [
        {
          "name": "_agreedPrice",
          "type": "uint256"
        }
      ],
      "name": "depositBuyerFunds",
      "outputs": [
        {
          "name": "",
          "type": "bool"
        }
      ],
      "payable": true,
      "stateMutability": "payable",
      "type": "function"
    },
    {
      "constant": false,
      "inputs": [],
      "name": "disposeOfProperty",
      "outputs": [],
      "payable": false,
      "stateMutability": "nonpayable",
      "type": "function"
    }
  ],
  "bytecode": "0x60806040523480156200001157600080fd5b506000600760146101000a81548160ff0219169083600b8111156200003257fe5b0217905550336000806101000a81548173ffffffffffffffffffffffffffffffffffffffff021916908373ffffffffffffffffffffffffffffffffffffffff16021790555033600260006101000a81548173ffffffffffffffffffffffffffffffffffffffff021916908373ffffffffffffffffffffffffffffffffffffffff1602179055506040805190810160405280600581526020017f636f6e646f00000000000000000000000000000000000000000000000000000081525060086001019080519060200190620001089291906200011f565b5060006004819055506000600581905550620001ce565b828054600181600116156101000203166002900490600052602060002090601f016020900481019282601f106200016257805160ff191683800117855562000193565b8280016001018555821562000193579182015b828111156200019257825182559160200191906001019062000175565b5b509050620001a29190620001a6565b5090565b620001cb91905b80821115620001c7576000816000905550600101620001ad565b5090565b90565b612b7e80620001de6000396000f3006080604052600436106100fc576000357c0100000000000000000000000000000000000000000000000000000000900463ffffffff16806324600fc3146101015780633cf4ba511461012c57806342730a67146101df5780634563f3661461020e578063626d4b351461027d57806374b882701461030d5780637760454d14610338578063a60e965314610363578063a7dd67491461039b578063ab460a26146103f0578063bcf6edb51461041f578063be58196b1461044e578063c9f2bd93146104c1578063cf2c6e9c146104ee578063d81bc2711461055d578063e237271a1461079d578063ef06f8d9146107c8578063efab1e50146107df575b600080fd5b34801561010d57600080fd5b506101166108b7565b6040518082815260200191505060405180910390f35b34801561013857600080fd5b506101c5600480360381019080803590602001908201803590602001919091929391929390803590602001908201803590602001919091929391929390803590602001908201803590602001919091929391929390803590602001908201803590602001919091929391929390803590602001908201803590602001919091929391929390505050610919565b604051808215151515815260200191505060405180910390f35b3480156101eb57600080fd5b506101f4610b74565b604051808215151515815260200191505060405180910390f35b34801561021a57600080fd5b50610263600480360381019080803573ffffffffffffffffffffffffffffffffffffffff1690602001909291908035906020019092919080359060200190929190505050610cbc565b604051808215151515815260200191505060405180910390f35b34801561028957600080fd5b50610292610e30565b6040518080602001828103825283818151815260200191508051906020019080838360005b838110156102d25780820151818401526020810190506102b7565b50505050905090810190601f1680156102ff5780820380516001836020036101000a031916815260200191505b509250505060405180910390f35b34801561031957600080fd5b50610322610e4f565b6040518082815260200191505060405180910390f35b34801561034457600080fd5b5061034d610e6a565b6040518082815260200191505060405180910390f35b61038160048036038101908080359060200190929190505050610e7b565b604051808215151515815260200191505060405180910390f35b3480156103a757600080fd5b506103ee6004803603810190808035906020019092919080359060200190929190803590602001909291908035906020019092919080359060200190929190505050610f7c565b005b3480156103fc57600080fd5b506104056110d3565b604051808215151515815260200191505060405180910390f35b34801561042b57600080fd5b506104346111e6565b604051808215151515815260200191505060405180910390f35b34801561045a57600080fd5b506104bf600480360381019080803590602001908201803590602001908080601f0160208091040260200160405190810160405280939291908181526020018383808284378201915050505050509192919290803590602001909291905050506112d2565b005b3480156104cd57600080fd5b506104ec600480360381019080803590602001909291905050506113ee565b005b3480156104fa57600080fd5b50610543600480360381019080803573ffffffffffffffffffffffffffffffffffffffff16906020019092919080359060200190929190803590602001909291905050506114bf565b604051808215151515815260200191505060405180910390f35b34801561056957600080fd5b506105726115e3565b60405180806020018060200180602001806020018060200186810386528b818151815260200191508051906020019080838360005b838110156105c25780820151818401526020810190506105a7565b50505050905090810190601f1680156105ef5780820380516001836020036101000a031916815260200191505b5086810385528a818151815260200191508051906020019080838360005b8381101561062857808201518184015260208101905061060d565b50505050905090810190601f1680156106555780820380516001836020036101000a031916815260200191505b50868103845289818151815260200191508051906020019080838360005b8381101561068e578082015181840152602081019050610673565b50505050905090810190601f1680156106bb5780820380516001836020036101000a031916815260200191505b50868103835288818151815260200191508051906020019080838360005b838110156106f45780820151818401526020810190506106d9565b50505050905090810190601f1680156107215780820380516001836020036101000a031916815260200191505b50868103825287818151815260200191508051906020019080838360005b8381101561075a57808201518184015260208101905061073f565b50505050905090810190601f1680156107875780820380516001836020036101000a031916815260200191505b509a505050505050505050505060405180910390f35b3480156107a957600080fd5b506107b2611606565b6040518082815260200191505060405180910390f35b3480156107d457600080fd5b506107dd611621565b005b3480156107eb57600080fd5b50610820600480360381019080803573ffffffffffffffffffffffffffffffffffffffff169060200190929190505050611708565b6040518086815260200180602001858152602001848152602001838152602001828103825286818151815260200191508051906020019080838360005b8381101561087857808201518184015260208101905061085d565b50505050905090810190601f1680156108a55780820380516001836020036101000a031916815260200191505b50965050505050505060405180910390f35b60006108cd33601461173890919063ffffffff16565b90503373ffffffffffffffffffffffffffffffffffffffff166108fc829081150290604051600060405180830381858888f19350505050158015610915573d6000803e3d6000fd5b5090565b60008060009054906101000a900473ffffffffffffffffffffffffffffffffffffffff1673ffffffffffffffffffffffffffffffffffffffff163373ffffffffffffffffffffffffffffffffffffffff1614151561097657600080fd5b600080600b81111561098457fe5b600760149054906101000a900460ff16600b81111561099f57fe5b1415156109ab57600080fd5b610ac18c8c8080601f0160208091040260200160405190810160405280939291908181526020018383808284378201915050505050508b8b8080601f0160208091040260200160405190810160405280939291908181526020018383808284378201915050505050508a8a8080601f01602080910402602001604051908101604052809392919081815260200183838082843782019150505050505089898080601f01602080910402602001604051908101604052809392919081815260200183838082843782019150505050505088888080601f01602080910402602001604051908101604052809392919081815260200183838082843782019150505050505060086117d19095949392919063ffffffff16565b50610acc601461185e565b6001600760146101000a81548160ff0219169083600b811115610aeb57fe5b02179055507f19e7d5cd55166a3cb3a8655c5144e76d5e5764d7e3aad3c0c6cc42cf3bda6d3e600160405180828152602001806020018281038252600c8152602001807f696e697469616c697a65282900000000000000000000000000000000000000008152506020019250505060405180910390a160019150509a9950505050505050505050565b600080600660009054906101000a900473ffffffffffffffffffffffffffffffffffffffff1673ffffffffffffffffffffffffffffffffffffffff163373ffffffffffffffffffffffffffffffffffffffff16141515610bd357600080fd5b600480600b811115610be157fe5b600760149054906101000a900460ff16600b811115610bfc57fe5b141515610c0857600080fd5b6000600454111515610c1957600080fd5b600454915060006004819055506005600760146101000a81548160ff0219169083600b811115610c4557fe5b0217905550600660009054906101000a900473ffffffffffffffffffffffffffffffffffffffff1673ffffffffffffffffffffffffffffffffffffffff166108fc839081150290604051600060405180830381858888f19350505050158015610cb2573d6000803e3d6000fd5b5060019250505090565b6000600280600b811115610ccc57fe5b600760149054906101000a900460ff16600b811115610ce757fe5b141515610cf357600080fd5b6000809054906101000a900473ffffffffffffffffffffffffffffffffffffffff1673ffffffffffffffffffffffffffffffffffffffff163373ffffffffffffffffffffffffffffffffffffffff16141515610d4e57600080fd5b6103e86008600b015410151515610d6457600080fd5b836008600501819055508260086006018190555084600660006101000a81548173ffffffffffffffffffffffffffffffffffffffff021916908373ffffffffffffffffffffffffffffffffffffffff16021790555083600481905550600860060154600581905550610de960086007015484860101601461186b90919063ffffffff16565b610df36014611915565b838503036008600701819055506004600760146101000a81548160ff0219169083600b811115610e1f57fe5b021790555060019150509392505050565b6060610e4a600760149054906101000a900460ff166119c6565b905090565b6000610e65336014611dec90919063ffffffff16565b905090565b6000610e766014611e3b565b905090565b6000600880600b811115610e8b57fe5b600760149054906101000a900460ff16600b811115610ea657fe5b141515610eb257600080fd5b600760009054906101000a900473ffffffffffffffffffffffffffffffffffffffff1673ffffffffffffffffffffffffffffffffffffffff163373ffffffffffffffffffffffffffffffffffffffff16141515610f0e57600080fd5b3483141515610f1c57600080fd5b60086005015483141515610f2f57600080fd5b610f396014611e49565b600860060154600560008282540192505081905550600a600760146101000a81548160ff0219169083600b811115610f6d57fe5b02179055506001915050919050565b600180600b811115610f8a57fe5b600760149054906101000a900460ff16600b811115610fa557fe5b141515610fb157600080fd5b6000809054906101000a900473ffffffffffffffffffffffffffffffffffffffff1673ffffffffffffffffffffffffffffffffffffffff163373ffffffffffffffffffffffffffffffffffffffff1614151561100c57600080fd5b6103e88611801561101f5750620f424086105b151561102a57600080fd5b85600860050181905550836008600701819055508460086006018190555060006004819055506000600581905550826008800181905550816008600901819055506103e86101f48588010181151561107e57fe5b046008600a018190555060006008600a015411151561109c57600080fd5b60006008600b01819055506002600760146101000a81548160ff0219169083600b8111156110c657fe5b0217905550505050505050565b60006002600481600b8111156110e557fe5b600760149054906101000a900460ff16600b81111561110057fe5b1480611130575080600b81111561111357fe5b600760149054906101000a900460ff16600b81111561112e57fe5b145b151561113b57600080fd5b6000809054906101000a900473ffffffffffffffffffffffffffffffffffffffff1673ffffffffffffffffffffffffffffffffffffffff163373ffffffffffffffffffffffffffffffffffffffff1614151561119657600080fd5b60006004541115156111a757600080fd5b600b600760146101000a81548160ff0219169083600b8111156111c657fe5b02179055506111d56014611fff565b600060058190555060019250505090565b6000806000809054906101000a900473ffffffffffffffffffffffffffffffffffffffff1673ffffffffffffffffffffffffffffffffffffffff163373ffffffffffffffffffffffffffffffffffffffff1614151561124457600080fd5b600060055411151561125557600080fd5b600554905060006005819055506000809054906101000a900473ffffffffffffffffffffffffffffffffffffffff1673ffffffffffffffffffffffffffffffffffffffff166108fc829081150290604051600060405180830381858888f193505050501580156112c9573d6000803e3d6000fd5b50600191505090565b6000600280600b8111156112e257fe5b600760149054906101000a900460ff16600b8111156112fd57fe5b14151561130957600080fd5b6103e86008600b015410151561131e57600080fd5b60006008600a01548481151561133057fe5b0411151561133d57600080fd5b6008600a01548381151561134d57fe5b04915061136a3385858560146120a990949392919063ffffffff16565b816008600b01600082825401925050819055507fe684a55f31b79eca403df938249029212a5925ec6be8012e099b45bc1019e5d23383604051808373ffffffffffffffffffffffffffffffffffffffff1673ffffffffffffffffffffffffffffffffffffffff1681526020018281526020019250505060405180910390a150505050565b600780600b8111156113fc57fe5b600760149054906101000a900460ff16600b81111561141757fe5b14151561142357600080fd5b6000809054906101000a900473ffffffffffffffffffffffffffffffffffffffff1673ffffffffffffffffffffffffffffffffffffffff163373ffffffffffffffffffffffffffffffffffffffff1614151561147e57600080fd5b60008211151561148d57600080fd5b816008600501819055506008600760146101000a81548160ff0219169083600b8111156114b657fe5b02179055505050565b600080600880600b8111156114d057fe5b600760149054906101000a900460ff16600b8111156114eb57fe5b1415156114f757600080fd5b6000809054906101000a900473ffffffffffffffffffffffffffffffffffffffff1673ffffffffffffffffffffffffffffffffffffffff163373ffffffffffffffffffffffffffffffffffffffff1614151561155257600080fd5b60008511151561156157600080fd5b85600760006101000a81548173ffffffffffffffffffffffffffffffffffffffff021916908373ffffffffffffffffffffffffffffffffffffffff16021790555084600860050181905550836008600601819055508360086007015486010391506115d68260146123bb90919063ffffffff16565b6001925050509392505050565b60608060608060606115f56008612465565b945094509450945094509091929394565b600061161c3360146127a090919063ffffffff16565b905090565b6000600a80600b81111561163157fe5b600760149054906101000a900460ff16600b81111561164c57fe5b14151561165857600080fd5b6000809054906101000a900473ffffffffffffffffffffffffffffffffffffffff1673ffffffffffffffffffffffffffffffffffffffff163373ffffffffffffffffffffffffffffffffffffffff161415156116b357600080fd5b6116bd60146127ef565b91506000821415156116ce57600080fd5b6000809054906101000a900473ffffffffffffffffffffffffffffffffffffffff1673ffffffffffffffffffffffffffffffffffffffff16ff5b60006060600080600061172586601461289f90919063ffffffff16565b9450945094509450945091939590929450565b60008260000160008373ffffffffffffffffffffffffffffffffffffffff1673ffffffffffffffffffffffffffffffffffffffff16815260200190815260200160002060030154905060008360000160008473ffffffffffffffffffffffffffffffffffffffff1673ffffffffffffffffffffffffffffffffffffffff1681526020019081526020016000206003018190555092915050565b6000858760000190805190602001906117eb929190612aad565b5084876001019080519060200190611804929190612aad565b508387600201908051906020019061181d929190612aad565b5082876003019080519060200190611836929190612aad565b508187600401908051906020019061184f929190612aad565b50600190509695505050505050565b6001816002018190555050565b6000600190505b8260020154811115156119105781836000016000856001018481548110151561189757fe5b9060005260206000200160009054906101000a900473ffffffffffffffffffffffffffffffffffffffff1673ffffffffffffffffffffffffffffffffffffffff1673ffffffffffffffffffffffffffffffffffffffff168152602001908152602001600020600601819055508080600101915050611872565b505050565b600080600190505b8260020154811115156119bc576000836000016000856001018481548110151561194357fe5b9060005260206000200160009054906101000a900473ffffffffffffffffffffffffffffffffffffffff1673ffffffffffffffffffffffffffffffffffffffff1673ffffffffffffffffffffffffffffffffffffffff16815260200190815260200160002060060181905550808060010191505061191d565b6000915050919050565b60606000600b8111156119d557fe5b82600b8111156119e157fe5b1415611a20576040805190810160405280600a81526020017f496e697469616c697a650000000000000000000000000000000000000000000081525090505b6001600b811115611a2d57fe5b82600b811115611a3957fe5b1415611a78576040805190810160405280600381526020017f4e6577000000000000000000000000000000000000000000000000000000000081525090505b6002600b811115611a8557fe5b82600b811115611a9157fe5b1415611ad0576040805190810160405280600781526020017f42696464696e670000000000000000000000000000000000000000000000000081525090505b6003600b811115611add57fe5b82600b811115611ae957fe5b1415611b28576040805190810160405280600f81526020017f5075726368617365436c6f73696e67000000000000000000000000000000000081525090505b6004600b811115611b3557fe5b82600b811115611b4157fe5b1415611b80576040805190810160405280600981526020017f507572636861736564000000000000000000000000000000000000000000000081525090505b6005600b811115611b8d57fe5b82600b811115611b9957fe5b1415611bd8576040805190810160405280600981526020017f417661696c61626c65000000000000000000000000000000000000000000000081525090505b6006600b811115611be557fe5b82600b811115611bf157fe5b1415611c30576040805190810160405280600681526020017f4c6561736564000000000000000000000000000000000000000000000000000081525090505b6007600b811115611c3d57fe5b82600b811115611c4957fe5b1415611c88576040805190810160405280600981526020017f4f66664d61726b6574000000000000000000000000000000000000000000000081525090505b6008600b811115611c9557fe5b82600b811115611ca157fe5b1415611ce0576040805190810160405280600781526020017f466f7253616c650000000000000000000000000000000000000000000000000081525090505b6009600b811115611ced57fe5b82600b811115611cf957fe5b1415611d38576040805190810160405280600b81526020017f53616c65436c6f73696e6700000000000000000000000000000000000000000081525090505b600a600b811115611d4557fe5b82600b811115611d5157fe5b1415611d90576040805190810160405280600481526020017f536f6c640000000000000000000000000000000000000000000000000000000081525090505b600b80811115611d9c57fe5b82600b811115611da857fe5b1415611de7576040805190810160405280600881526020017f446973706f73656400000000000000000000000000000000000000000000000081525090505b919050565b60008260000160008373ffffffffffffffffffffffffffffffffffffffff1673ffffffffffffffffffffffffffffffffffffffff16815260200190815260200160002060030154905092915050565b600081600201549050919050565b6000600190505b816002015481111515611ffb578160000160008360010183815481101515611e7457fe5b9060005260206000200160009054906101000a900473ffffffffffffffffffffffffffffffffffffffff1673ffffffffffffffffffffffffffffffffffffffff1673ffffffffffffffffffffffffffffffffffffffff168152602001908152602001600020600601548260000160008460010184815481101515611ef457fe5b9060005260206000200160009054906101000a900473ffffffffffffffffffffffffffffffffffffffff1673ffffffffffffffffffffffffffffffffffffffff1673ffffffffffffffffffffffffffffffffffffffff1681526020019081526020016000206003016000828254019250508190555060008260000160008460010184815481101515611f8257fe5b9060005260206000200160009054906101000a900473ffffffffffffffffffffffffffffffffffffffff1673ffffffffffffffffffffffffffffffffffffffff1673ffffffffffffffffffffffffffffffffffffffff168152602001908152602001600020600601819055508080600101915050611e50565b5050565b6000600190505b8160020154811115156120a5576000826000016000846001018481548110151561202c57fe5b9060005260206000200160009054906101000a900473ffffffffffffffffffffffffffffffffffffffff1673ffffffffffffffffffffffffffffffffffffffff1673ffffffffffffffffffffffffffffffffffffffff168152602001908152602001600020600601819055508080600101915050612006565b5050565b846002016000815480929190600101919050555084600201548560000160008673ffffffffffffffffffffffffffffffffffffffff1673ffffffffffffffffffffffffffffffffffffffff16815260200190815260200160002060000181905550838560000160008673ffffffffffffffffffffffffffffffffffffffff1673ffffffffffffffffffffffffffffffffffffffff16815260200190815260200160002060010160006101000a81548173ffffffffffffffffffffffffffffffffffffffff021916908373ffffffffffffffffffffffffffffffffffffffff160217905550828560000160008673ffffffffffffffffffffffffffffffffffffffff1673ffffffffffffffffffffffffffffffffffffffff16815260200190815260200160002060020190805190602001906121e5929190612aad565b5060008560000160008673ffffffffffffffffffffffffffffffffffffffff1673ffffffffffffffffffffffffffffffffffffffff16815260200190815260200160002060030181905550818560000160008673ffffffffffffffffffffffffffffffffffffffff1673ffffffffffffffffffffffffffffffffffffffff16815260200190815260200160002060040181905550808560000160008673ffffffffffffffffffffffffffffffffffffffff1673ffffffffffffffffffffffffffffffffffffffff1681526020019081526020016000206005018190555060008560000160008673ffffffffffffffffffffffffffffffffffffffff1673ffffffffffffffffffffffffffffffffffffffff1681526020019081526020016000206006018190555060008560000160008673ffffffffffffffffffffffffffffffffffffffff1673ffffffffffffffffffffffffffffffffffffffff168152602001908152602001600020600701819055508385600101866002015481548110151561236c57fe5b9060005260206000200160006101000a81548173ffffffffffffffffffffffffffffffffffffffff021916908373ffffffffffffffffffffffffffffffffffffffff1602179055505050505050565b6000600190505b826002015481111515612460578183600001600085600101848154811015156123e757fe5b9060005260206000200160009054906101000a900473ffffffffffffffffffffffffffffffffffffffff1673ffffffffffffffffffffffffffffffffffffffff1673ffffffffffffffffffffffffffffffffffffffff1681526020019081526020016000206006018190555080806001019150506123c2565b505050565b60608060608060608560000186600101876002018860030189600401848054600181600116156101000203166002900480601f0160208091040260200160405190810160405280929190818152602001828054600181600116156101000203166002900480156125165780601f106124eb57610100808354040283529160200191612516565b820191906000526020600020905b8154815290600101906020018083116124f957829003601f168201915b50505050509450838054600181600116156101000203166002900480601f0160208091040260200160405190810160405280929190818152602001828054600181600116156101000203166002900480156125b25780601f10612587576101008083540402835291602001916125b2565b820191906000526020600020905b81548152906001019060200180831161259557829003601f168201915b50505050509350828054600181600116156101000203166002900480601f01602080910402602001604051908101604052809291908181526020018280546001816001161561010002031660029004801561264e5780601f106126235761010080835404028352916020019161264e565b820191906000526020600020905b81548152906001019060200180831161263157829003601f168201915b50505050509250818054600181600116156101000203166002900480601f0160208091040260200160405190810160405280929190818152602001828054600181600116156101000203166002900480156126ea5780601f106126bf576101008083540402835291602001916126ea565b820191906000526020600020905b8154815290600101906020018083116126cd57829003601f168201915b50505050509150808054600181600116156101000203166002900480601f0160208091040260200160405190810160405280929190818152602001828054600181600116156101000203166002900480156127865780601f1061275b57610100808354040283529160200191612786565b820191906000526020600020905b81548152906001019060200180831161276957829003601f168201915b505050505090509450945094509450945091939590929450565b60008260000160008373ffffffffffffffffffffffffffffffffffffffff1673ffffffffffffffffffffffffffffffffffffffff16815260200190815260200160002060050154905092915050565b60008060009150600190505b82600201548111151561289957826000016000846001018381548110151561281f57fe5b9060005260206000200160009054906101000a900473ffffffffffffffffffffffffffffffffffffffff1673ffffffffffffffffffffffffffffffffffffffff1673ffffffffffffffffffffffffffffffffffffffff168152602001908152602001600020600301548201915080806001019150506127fb565b50919050565b6000606060008060008660000160008773ffffffffffffffffffffffffffffffffffffffff1673ffffffffffffffffffffffffffffffffffffffff1681526020019081526020016000206000015494508660000160008773ffffffffffffffffffffffffffffffffffffffff1673ffffffffffffffffffffffffffffffffffffffff1681526020019081526020016000206002018054600181600116156101000203166002900480601f0160208091040260200160405190810160405280929190818152602001828054600181600116156101000203166002900480156129c75780601f1061299c576101008083540402835291602001916129c7565b820191906000526020600020905b8154815290600101906020018083116129aa57829003601f168201915b505050505093508660000160008773ffffffffffffffffffffffffffffffffffffffff1673ffffffffffffffffffffffffffffffffffffffff1681526020019081526020016000206004015492508660000160008773ffffffffffffffffffffffffffffffffffffffff1673ffffffffffffffffffffffffffffffffffffffff1681526020019081526020016000206005015491508660000160008773ffffffffffffffffffffffffffffffffffffffff1673ffffffffffffffffffffffffffffffffffffffff1681526020019081526020016000206006015490509295509295909350565b828054600181600116156101000203166002900490600052602060002090601f016020900481019282601f10612aee57805160ff1916838001178555612b1c565b82800160010185558215612b1c579182015b82811115612b1b578251825591602001919060010190612b00565b5b509050612b299190612b2d565b5090565b612b4f91905b80821115612b4b576000816000905550600101612b33565b5090565b905600a165627a7a723058201922d55e6f8e9ad09943a54798d2e741d4490e672e179cc22d910059dc9476280029",
  "source": "pragma solidity ^0.4.21;\n\nimport \"./Property.sol\";\nimport \"./Investors.sol\";\n//import \"./PropertyContractInterface.sol\";\n\n\ncontract PropertyContract //is PropertyContractInterface\n{\n  using Property for Property.PropertyRecord;\n  using Investors for Investors.InvestorRecords;\n\n  address owner; // owner of the contract\n  address ownerContact;\n  address manager; // current delegated manager responsible for renting and\n                   // maintenance of the property\n  string managerContact;\n\n  uint unlockSellerFunds;\n  uint unlockClosingCosts;\n  address seller;\n  address buyer;\n\n  Property.State state;\n  Property.PropertyRecord property;\n  Investors.InvestorRecords investors;\n\n  /* list of all main events */\n  // debugging events\n  event Debug( uint _level, string _msg );\n  event Bid( address _who, uint _points );\n\n  // logs any changes in ovenrship\n  event OwnershipTransfer( address _from, address _to, uint _points );\n  // logs any financial transfers\n  event Financials( uint _code, address _who, uint _amount, uint _points);\n  /* types:  1-ownrship purchase\n             2-ownership sale\n             3-seller payment\n             4-owner fee (closing fee)\n             5-buyer amount\n             6-management fee\n             7-service fee\n             8-lease payment\n             9-owner share\n   */\n   // change in the manager function\n   event ManagerChange( address _newManager, string _dateFrom );\n   // new lease assigned\n   event LeaseRecord( address _who, string _dateFrom );\n   // request for vote\n   event VoteRequest( string _description, string _deadline );\n   // votre results\n   event VoteDecision( string _description, string _result, address _ref );\n\n\n    /*---------------------------------------------------------------------\n     * @dev - set up initial contracts\n     */\n    constructor () public {\n      // set initial values\n      state = Property.State.Initialize;\n      owner = msg.sender;\n      //ownerContact = \"\";\n      manager = msg.sender;\n      //managerContact = \"\";\n\n      property.name = \"condo\";\n\n      unlockSellerFunds = 0;\n      unlockClosingCosts = 0;\n    }//constructor\n\n\n    /*---------------------------------------------------------------------\n     * MODIFIERS\n     */\n    modifier hasState( Property.State s ){\n      require( state==s );\n      _;\n    }\n\n    modifier hasStates( Property.State s1, Property.State s2 ){\n      require( state==s1 || state==s2 );\n      _;\n    }\n\n    modifier isOwner(){\n        require( msg.sender==owner );\n        _;\n    }\n\n    modifier isManager(){\n        require( msg.sender==manager );\n        _;\n    }\n\n    modifier isSeller(){\n        require( msg.sender==seller );\n        _;\n    }\n\n    modifier isBuyer(){\n        require( msg.sender==buyer );\n        _;\n    }\n\n\n    /* MAINTENANCE functions */\n\n    function initialize (\n      string _id,\n      string _name,\n      string _propertyAddress,\n      string _titleAgent,\n      string _titleContact\n    ) external\n      isOwner()\n      hasState( Property.State.Initialize )\n      returns( bool )\n    {\n      //Property.initialize( property, _id, _name, _propertyAddress, _titleAgent, _titleContact );\n      property.initialize( _id, _name, _propertyAddress, _titleAgent, _titleContact );\n      //Investors.initialize( investors );\n      investors.initialize();\n      state = Property.State.New;\n      emit Debug( 1, \"initialize()\" );\n      return( true );\n    }//constructor\n\n\n      // @dev - return JSON style strign with the property details\n      function getPropertyDetails() external view returns (string, string, string, string, string)\n      {\n          //return( Property.formatPropertyInfo(property) );\n          return( property.formatPropertyInfo() );\n      }\n\n      function getPropertyStatus() external view returns (string)\n      {\n          return( Property.getState(state) );\n      }\n\n      // @dev - owners can check how many ownership points were allocated to them\n      function checkOwnershipShare() external view returns (uint)\n      {\n          //return( Investors.getOwnershipPoints( investors, msg.sender ) );\n          return( investors.getOwnershipPoints( msg.sender ) );\n      }\n\n      function getCountOfInvestors() external view returns(uint _len){\n          //_len = Investors.getCount( investors );\n          _len = investors.getCount();\n      }\n\n      function getInvestorDetails( address _who )\n        external view\n        returns(uint,string,uint,uint,uint)\n      {\n        //return( Investors.getDetails( investors, _who ) );\n        return( investors.getDetails( _who ) );\n      }\n\n      // @dev - owners can check if they have any funds left for withdrawal\n      function checkAvailableFunds()\n        external view\n        returns (uint _funds)\n      {\n        //_funds = Investors.checkAvailableFunds( investors, msg.sender );\n        _funds = investors.checkAvailableFunds( msg.sender );\n      }\n\n      /*-------------------------------------------------------------------\n       USER STORY #1: PURCHASING A PROPERTY\n       1) the story starts with @owner settign up the @property and open it\n          for bidding using #openForBidding method.\n       2) Individual candidates then submit their bids using #submitBid method,\n          until the totoal ownership points (set at 100.0%) are distributed.\n       3) The owner then closes bidding by starting the property pruchase closing\n          process, by invoiking the #closePurchase method. As part of the closing\n          the property ownership points are confirmed and any overpaid funds are\n          unlocked for withdrawal.\n       4) Seller then can witdraw the funds (purchase price) by calling\n          #withdrawSellerFunds, and pruchase Ether is transferred to his/her account.\n       5) Owner can then also withdraw closing costs from the account using\n          the agreed #withdrawCLosingFees and the remaining balance is left\n          as @propertyReserve amount for servicing the property.\n       6) If the purchase was cancelled, the owner calls #cancelPurchase and\n          funds deposited by bidders are unlock so they can retireve them back.\n       7) Finally both successful and unsuccessful bidders can withdraw the unused\n          funds by calling individually the #withdrawFunds method.\n       *-------------------------------------------------------------------\n       */\n\n    /*---------------------------------------------------------------------\n     * @dev - begin purchasing process, interested partied submit their bids\n     */\n    function openForBidding(\n      uint _openPrice,  // what is the asking price for the property\n      uint _closingCosts, // what will be closing costs reserve\n      uint _initialReserve, // what will be the inital reserve\n      uint _monthlyFee, // how much the initial management fee is set to\n      uint _monthlyLease  // how much the initial monthly lease is set to\n    ) external\n      hasState( Property.State.New )\n      isOwner()\n    {\n    // open bidding for given property until all points are awarded\n        require( _openPrice > 1000 && _openPrice<1000000 );\n        property.propertyPrice = _openPrice;\n        property.reserveAmount = _initialReserve;\n        property.closingCosts = _closingCosts;\n        unlockSellerFunds = 0;\n        unlockClosingCosts = 0;\n        property.monthlyFee = _monthlyFee;\n        property.monthlyLease = _monthlyLease;\n        property.unitPrice = ( _openPrice + _initialReserve + 500 ) / 1000; // round unit price\n        require( property.unitPrice>0 );\n        property.totalPoints = 0; // no points awarded yet\n        state = Property.State.Bidding;\n    }//openForBidding\n\n    /*---------------------------------------------------------------------\n     * @dev - begin bidding for the property ownership\n     */\n     function submitBid(\n       string _myContact,\n       uint _myAmount\n    )  //payable\n       public\n       hasState( Property.State.Bidding )\n     // @ submit bids until all points are allocated\n     {\n       require( property.totalPoints < 1000 );\n       require( _myAmount/property.unitPrice > 0 ); // only amounts that will get at least 1 point\n       // log each bid in sequence\n       uint _points = _myAmount / property.unitPrice;\n       //Investors.submitInvestorBid( investors, msg.sender, _myContact, _myAmount, _points);\n       investors.submitInvestorBid( msg.sender, _myContact, _myAmount, _points);\n       property.totalPoints += _points;\n       emit Bid( msg.sender, _points );\n     }//submitBid\n\n     /*---------------------------------------------------------------------\n      * @dev - end bidding\n      */\n      function closePurchase(\n        address _seller,\n        uint _actualPrice, // actual negotiated price\n        uint _actualClosingCost\n      ) external\n        hasState( Property.State.Bidding )\n        isOwner()\n        returns (bool)\n      // close bidding and begin close process\n      {\n        require( property.totalPoints >= 1000 );\n        property.propertyPrice = _actualPrice;\n        property.closingCosts = _actualClosingCost;\n\n        // closing finances\n        seller = _seller;\n        unlockSellerFunds = _actualPrice;\n        // pay the owner the closing expenses\n        unlockClosingCosts = property.closingCosts;\n        // unlock funds for returning unused investments, users have to claim them back\n        //Investors.unlockOverpayments( investors, _actualPrice+_actualClosingCost+property.reserveAmount );\n        investors.unlockOverpayments( _actualPrice+_actualClosingCost+property.reserveAmount );\n        // check if the reserve amount is positive (possible overflow!)\n        //property.reserveAmount = _actualPrice-_actualClosingCost-Investors.getAmountRaised(investors);\n        property.reserveAmount = _actualPrice - _actualClosingCost - investors.getAmountRaised();\n        state = Property.State.Purchased;\n        return(true);\n      }//closeBidding\n\n      /*---------------------------------------------------------------------\n       * @dev - have seller retrieve the amounts\n       */\n       function withdrawBySeller(\n       ) external\n         isSeller()\n         hasState(Property.State.Purchased )\n         returns (bool)\n       {\n         require( unlockSellerFunds>0 );\n         uint _amount = unlockSellerFunds;\n         unlockSellerFunds = 0;\n         state = Property.State.Available;\n         seller.transfer(_amount);\n         return( true );\n       }//settleSellerFunds\n\n       /*---------------------------------------------------------------------\n        * @dev - have owner retrieve the closing expenses\n        */\n        function withdrawClosingFees(\n        ) external\n          isOwner()\n          returns (bool)\n        {\n          require( unlockClosingCosts>0 );\n          uint _amount = unlockClosingCosts;\n          unlockClosingCosts = 0;\n          owner.transfer(_amount);\n          return( true );\n        }//settleSeller\n\n        /*---------------------------------------------------------------------\n         * @dev - cancel purchase\n         */\n         function cancelPurchase(\n         ) external\n           hasStates( Property.State.Bidding, Property.State.Purchased )\n           isOwner()\n           returns (bool)\n         {\n           require( unlockSellerFunds>0 );\n           state = Property.State.Disposed;\n           //Investors.unlockAllInvestments(investors);\n           investors.unlockAllInvestments();\n           unlockClosingCosts = 0;\n           unlockSellerFunds;\n           return( true );\n         }//settleSeller\n\n         /*---------------------------------------------------------------------\n          * @dev - investors can withdraw funds that were unlocked\n          */\n          function withdrawFunds(\n          ) external\n            returns (uint _amount)\n          {\n            //_amount = Investors.withdrawFunds(investors,msg.sender);\n            _amount = investors.withdrawFunds(msg.sender);\n            // return funds\n            msg.sender.transfer( _amount );\n          }//settleSeller\n\n\n          /*-------------------------------------------------------------------\n           * USER STORY #2: SELLING PROPERTY\n           1) Once @owners approve the property to be sold, the owner initiates\n              the sale by invoking #beginSale with a given @askingPrice.\n           2) If the property does not have any interested buyers, the @owner can initiate\n              another voting on a lowerd price. If @owners agreed on the lower price,\n              the @owner can:\n                   a) readjust the sale price by re-calling #beginSale again, or\n                   b) cancel the sale by calling #cancelSale\n           3) Once a @buyer is found, the @owner begins the sale closing, and\n              invokes #closeSale with agreed parameters\n           4) The contract will then wait for the buyer to deposit the agreed purchase price.\n              The @buyer will send ether funds to #depositBuyerFunds and if accepted,\n              the contract will distribute the purchase price among the @owners, and\n              unlock the funds for them to retrieve their share of proceeds individually.\n              If any property reserveFunds are available they are added to the proceeds\n              for distribuytion among the owners.\n           5) The owner can then call #withdrawClosingFees to pay for the agreed closing fees.\n           5) Once all funds were retrieved and all the unlocked amounts were\n              retrieved the @owner can destroy the contract.\n           *-------------------------------------------------------------------\n           */\n\n      /*---------------------------------------------------------------------\n       * @dev - set up property for sale\n       */\n       function beginSale(\n         uint _askingPrice  // what is the asking price for the property\n       ) external\n         hasState( Property.State.OffMarket )\n         isOwner()\n       {\n           // open bidding for given property until all points are awarded\n           require( _askingPrice>0 );\n           property.propertyPrice = _askingPrice;\n           state = Property.State.ForSale;  // property cannot be rented now\n       }//begin selling\n\n       /*---------------------------------------------------------------------\n        * @dev - execute closing and distribute funds\n        */\n        function closeSale(\n          address _buyer,    // who will be buying the property\n          uint _agreedPrice,  // what is the closing price\n          uint _closingCosts  // how much to set aside for closing\n        ) external\n          hasState( Property.State.ForSale )\n          isOwner()\n          returns( bool )\n        {\n            require( _agreedPrice>0 );\n            // where is the payment comming from\n            buyer = _buyer;\n            property.propertyPrice = _agreedPrice;\n            property.closingCosts = _closingCosts;\n\n            // disburse all sale proceeds and reserve to investors\n            uint _funds = _agreedPrice + property.reserveAmount - _closingCosts;\n            //Investors.calculateShareOfSaleProceeds( investors, _funds );\n            investors.calculateShareOfSaleProceeds( _funds );\n\n            return( true );\n        }//close Sale\n\n        /*---------------------------------------------------------------------\n         * @dev - await till buyer deposits the amounts\n         */\n         function depositBuyerFunds(\n           uint _agreedPrice  // what is the closing price\n         ) external payable\n           hasState( Property.State.ForSale )\n           isBuyer()\n           returns( bool )\n         {\n             require( _agreedPrice == msg.value );\n             require( _agreedPrice == property.propertyPrice );\n\n             // allow owners now retrieve their proceeds\n             //Investors.unlockSaleProceeds( investors );\n             investors.unlockSaleProceeds();\n\n             // allow owner to withdraw closing funds\n             unlockClosingCosts += property.closingCosts;\n\n             state = Property.State.Sold;\n             return( true );\n         }//settle payment\n\n         /*---------------------------------------------------------------------\n          * @dev - end the contract\n          */\n         function disposeOfProperty(\n         ) external\n           hasState( Property.State.Sold )\n           isOwner()\n         {\n           //uint undistributedFunds = Investors.totalPendingWithdrawals(investors);\n           uint undistributedFunds = investors.totalPendingWithdrawals();\n           // only if all  owners withdrew their amounts, then we can selfdestruct\n           require( undistributedFunds==0 );\n           selfdestruct( owner );\n         }//settle payment\n\n\n         /*-------------------------------------------------------------------\n          * USER STORY #3: RENTING PROPERTY\n          *   - awarding a lease contract\n          *-------------------------------------------------------------------\n          */\n          // To be implemented next\n\n         /*-------------------------------------------------------------------\n          * USER STORY #4: CHANGING OWNERSHIPS / TRADING POINTS\n          *-------------------------------------------------------------------\n          */\n          // To be implemented next\n\n         /*-------------------------------------------------------------------\n          * USER STORY #5: OWNERS ARE VOTING ON VARIOUS ISSUES\n          * Examples of voting:\n          *   - electing a new manager for property maitenance\n          *   - choosing a new monthly rental amount (increase or decrease)\n          *   - approving service request with given amount (>$500)\n          *   - approving property for sale\n          *-------------------------------------------------------------------\n          */\n          // To be implemented next\n\n\n}//PropertyContract\n",
  "sourcePath": "/home/vega/_node/chi01/contracts/PropertyContract.sol",
  "compiler": {
    "name": "solc",
    "version": "0.4.24+commit.e67f0147.Emscripten.clang"
  },
  "schemaVersion": "2.0.1",
  "updatedAt": "2018-07-14T05:08:27.720Z"
}